:100000000C9462000C948A000C948A000C948A0070
:100010000C948A000C948A000C948A000C948A0038
:100020000C948A000C948A000C948A000C948A0028
:100030000C948A000C948A000C948A000C948A0018
:100040000C9428060C948A000C9498060C94720662
:100050000C948A000C948A000C948A000C948A00F8
:100060000C948A000C948A000000000024002700F1
:100070002A0000000000250028002B0000000000DE
:1000800023002600290004040404040404040202DA
:100090000202020203030303030301020408102007
:1000A0004080010204081020010204081020000012
:1000B0000008000201000003040700000000000027
:1000C0000000CA0611241FBECFEFD8E0DEBFCDBFAF
:1000D00011E0A0E0B1E0E8E4F6E102C005900D9285
:1000E000A638B107D9F722E0A6E8B1E001C01D9219
:1000F000A235B207E1F710E0C2E6D0E004C02197D4
:10010000FE010E94170BC136D107C9F70E942007D4
:100110000C94220B0C940000833081F028F4813081
:1001200099F08230A1F008958730A9F08830B9F0B5
:100130008430D1F4809180008F7D03C08091800055
:100140008F7780938000089584B58F7702C084B53F
:100150008F7D84BD08958091B0008F7703C080911A
:10016000B0008F7D8093B0000895CF93DF93282F48
:1001700030E0F901E255FF4F8491F901E656FF4F57
:10018000D491F901EA57FF4FC491CC2391F081112A
:100190000E948C00EC2FF0E0EE0FFF1FE458FF4FA1
:1001A000A591B491EC91ED2381E090E021F480E001
:1001B00002C080E090E0DF91CF9108951F93CF932C
:1001C000DF93282F30E0F901E255FF4F8491F901C8
:1001D000E656FF4FD491F901EA57FF4FC491CC2363
:1001E000C1F0162F81110E948C00EC2FF0E0EE0F71
:1001F000FF1FEE58FF4FA591B4919FB7F8941111CE
:1002000004C08C91D095D82302C0EC91DE2BDC93F6
:100210009FBFDF91CF911F910895CF93DF9390E01F
:10022000FC01E656FF4F2491FC01EA57FF4F8491F1
:10023000882361F190E0880F991FFC01E859FF4F76
:10024000C591D491FC01EE58FF4FA591B491611175
:1002500009C09FB7F8948881209582238883EC9108
:100260002E230BC0623061F49FB7F8948881322F3F
:10027000309583238883EC912E2B2C939FBF06C04F
:100280008FB7F894E8812E2B28838FBFDF91CF9111
:1002900008953FB7F8948091870190918801A091CB
:1002A0008901B0918A0126B5A89B05C02F3F19F09E
:1002B0000196A11DB11D3FBFBA2FA92F982F8827E6
:1002C000820F911DA11DB11DBC01CD0142E0660F41
:1002D000771F881F991F4A95D1F708958F929F9293
:1002E000AF92BF92CF92DF92EF92FF926B017C01AF
:1002F0000E9449014B015C01C114D104E104F104E5
:10030000F1F00E944901DC01CB0188199909AA0981
:10031000BB09883E9340A105B10570F321E0C21AE4
:10032000D108E108F10888EE880E83E0981EA11C30
:10033000B11CC114D104E104F10419F7DDCFFF9021
:10034000EF90DF90CF90BF90AF909F908F900895E7
:10035000EF92FF921F93CF93DF932FB7F894809182
:100360008B0190918C01A0918D01B0918E012FBFD6
:1003700040913502509136026091370270913802F7
:1003800084179507A607B70740F41092350210921C
:100390003602109237021092380220913902211150
:1003A00013C040913502509136026091370270912E
:1003B0003802841B950BA60BB70B803D9740A10517
:1003C000B10510F481E092C0109239022FB7F89471
:1003D00080918B0190918C01A0918D01B0918E0143
:1003E0002FBF8093350290933602A0933702B093CB
:1003F00038021092300210922F0210922E021092A8
:100400002D0210922C0261E0809132020E94DE00E7
:100410006AEF70E080E090E00E946E0161E0809100
:1004200032020E940D0160E0809132020E94DE00E3
:1004300064E170E080E090E00E946E01F89461E079
:10044000809132020E94DE008BE990E00197F1F783
:1004500060E0809132020E940D0110E081E0C0E076
:10046000D0E0E82EF12C809132020E94B5008E156A
:100470009F0519F4DF5FDF3FB1F7809132020E94E0
:10048000B500DF3FC1F0C43098F0C0FD11C0E12FCE
:10049000E695E695E695F0E0E45DFD4F9081990FD5
:1004A0009083209134022D1710F4916090831F5F88
:1004B000CF5FC535A9F678941832B8F02091300294
:1004C00030E040912C0280912D0290E0840F911D2C
:1004D00040912E02840F911D40912F02840F911D97
:1004E00099272817390709F46DCF80E0DF91CF9164
:1004F0001F91FF90EF900895CF92DF92EF92FF92BD
:100500000F931F93CF93DF936C017A018B01C0E0AF
:10051000D0E0CE15DF0581F0D8016D918D01D601B7
:10052000ED91FC910190F081E02DC6010995892B98
:1005300011F02196EECF7E01C701DF91CF911F917F
:100540000F91FF90EF90DF90CF900895FC01538DB5
:10055000448D252F30E0842F90E0821B930B54179D
:1005600010F0CF96089501970895FC01918D828D2A
:10057000981761F0828DDF01A80FB11D5D968C91F7
:10058000928D9F5F9F73928F90E008958FEF9FEF02
:100590000895FC01918D828D981731F0828DE80FBE
:1005A000F11D858D90E008958FEF9FEF0895FC0178
:1005B000918D228D892F90E0805C9F4F821B910945
:1005C0008F73992708958FE891E00E94D70221E068
:1005D000892B09F420E0822F0895FC01848DDF012E
:1005E000A80FB11DA35ABF4F2C91848D90E00196A6
:1005F0008F739927848FA689B7892C93A089B18995
:100600008C91837080648C93938D848D981306C035
:100610000288F389E02D80818F7D80830895EF9299
:10062000FF920F931F93CF93DF93EC0181E0888FAC
:100630009B8D8C8D981305C0E889F989808185FD93
:1006400026C0F62E0B8D10E00F5F1F4F0F73112782
:10065000E02E8C8DE8120CC00FB607FCFACFE889AB
:10066000F989808185FFF5CFCE010E94ED02F1CF9F
:100670008B8DFE01E80FF11DE35AFF4FF0829FB70B
:10068000F8940B8FEA89FB89808180620AC09FB74A
:10069000F894EE89FF896083E889F9898081837005
:1006A000806480839FBF81E090E0DF91CF911F91B4
:1006B0000F91FF90EF900895CF93DF93EC01888D19
:1006C0008823C9F0EA89FB89808185FD05C0A88956
:1006D000B9898C9186FD0FC00FB607FCF5CF8081DC
:1006E00085FFF2CFA889B9898C9185FFEDCFCE0126
:1006F0000E94ED02E7CFDF91CF91089580E090E076
:10070000892B29F00E94E30281110C9400000895C6
:10071000CF93DF93EC0160E08E810E94DE0061E008
:100720008E810E94DE0060E08E810E94DE008BE8F8
:1007300091E00197F1F7DF91CF910895CF92DF9289
:10074000EF92FF920F931F93CF93DF936C017C0185
:1007500087E0E80EF11CC0E0D0E0062F10E0B80101
:100760000C2E02C0759567950A94E2F76170F70147
:1007700081917F010E94DE002196C430D10579F776
:10078000C601DF91CF911F910F91FF90EF90DF9005
:10079000CF900C948803CF92DF92EF92FF920F9349
:1007A0001F93CF93DF93EC01F62E642F8C810E9470
:1007B000DE008D818F3F19F060E00E94DE008F85A2
:1007C0000F2D10E084FF25C06E0187E0C80ED11CFC
:1007D000E12CF12CB8010E2C02C0759567950A9496
:1007E000E2F76170F60181916F010E94DE00FFEF78
:1007F000EF1AFF0A88E0E816F10461F7CE01DF91F5
:10080000CF911F910F91FF90EF90DF90CF900C94BC
:100810008803B80184E0759567958A95E1F7CE0164
:100820000E949E036F2DCE01DF91CF911F910F91FA
:10083000FF90EF90DF90CF900C949E0340E0682FE4
:100840008AE392E00C94CB03CF93DF93823028F0BD
:100850009091490298609093490280934D021092C2
:100860004E0280E480934F0280E18093500280E545
:100870008093510261E080913E020E940D018091BF
:100880003F028F3F19F061E00E940D0161E080910D
:1008900040020E940D01CAE3D2E09E012A53324079
:1008A0008091490284FD03C084E090E002C088E0AA
:1008B00090E02196281739072CF461E08E810E9480
:1008C0000D01EBCF8BE39DE00197F1F760E08091A4
:1008D0003E020E94DE0060E0809140020E94DE0045
:1008E00080913F028F3F19F060E00E94DE0080910E
:1008F000490284FD20C063E08AE392E00E949E03E7
:10090000CBE4D6E4CE010197F1F763E08AE392E00D
:100910000E949E032197F1F763E08AE392E00E9430
:100920009E0383E592E00197F1F762E08AE392E0AB
:100930000E949E0315C080620E941E048BE496E410
:100940000197F1F78091490280620E941E0483E5BD
:1009500092E00197F1F78091490280620E941E04A3
:100960008091490280620E941E0484E080934A02C2
:100970008CE00E941E0481E00E941E048BE39FE134
:100980000197F1F782E080934B0286E0DF91CF91EF
:100990000C941E0441E00E94CB0381E090E0089596
:1009A000089580E090E008950E941D0B6115710587
:1009B00079F0FB0101900020E9F73197AF01461B68
:1009C000570BDC01ED91FC910280F381E02D09943D
:1009D00080E090E00895CF93DF93BC018FE891E031
:1009E0000E94D604EC016EE171E08FE891E00E9474
:1009F000D6048C0F9D1FDF91CF9108952F923F92C7
:100A00004F925F926F927F928F929F92AF92BF921E
:100A1000CF92DF92EF92FF920F931F93CF93DF93CA
:100A2000CDB7DEB7A2970FB6F894DEBF0FBECDBF2D
:100A30008C014A015B01D22E9A01AB01C501B401C0
:100A40000E94F00A882319F061E271E027C02401B6
:100A50003501E89477F82FEF3FEF4FE75FE7C301E9
:100A6000B2010E94F00A81110DC02FEF3FEF4FE756
:100A70005FE7C301B2010E94260918161CF465E263
:100A800071E00CC02FEF3FEF4FE75FE4C501B40109
:100A90000E947E0A181634F469E271E0C8010E94CF
:100AA000D604BDC02FEF3FEF4FE75FECC501B401A7
:100AB0000E94260987FDF0CF20E030E0A901C501A2
:100AC000B4010E94260987FF0FC0D801ED91FC9167
:100AD0000190F081E02D6DE2C80109951C01B7FA83
:100AE000B094B7F8B09402C0212C312CF12C60E006
:100AF00070E080E09FE3DF1441F020E030E040E26E
:100B000051E40E942B09F394F6CFA50194010E94B1
:100B1000BA084B015C010E949D09562E672E782E63
:100B2000C92E19A2262F372F482F592F7E01B1E247
:100B3000EB0EF11CEAA24F2CCA01B9012AE030E009
:100B400040E050E00E94F50A605DF70162937F018A
:100B5000211531054105510579F7BF01C8010E94F2
:100B6000D6047101E80EF91EDD2009F457C0652D89
:100B7000762D872D9C2D0E94CC099B01AC01C501CF
:100B8000B4010E94B9084B015C01D801ED91FC91C0
:100B90000190F081E02D6EE2C8010995E80EF91E82
:100BA00020E030E040E251E4C501B4010E94830A34
:100BB0004B015C010E949D099B0140E050E019A29D
:100BC0002AA0342C562E632E742EC52ECA01B901CC
:100BD0002AE030E040E050E00E94F50A605DF1015B
:100BE00062931F01211531054105510579F7BF01B8
:100BF000C8010E94D604E80EF91E652D762D872DBA
:100C00009C2D0E94CC099B01AC01C501B4010E943E
:100C1000B9084B015C01DA94D110C2CFC701A2968A
:100C20000FB6F894DEBF0FBECDBFDF91CF911F91FD
:100C30000F91FF90EF90DF90CF90BF90AF909F907B
:100C40008F907F906F905F904F903F902F9008957E
:100C50001F920F920FB60F9211242F933F938F93F1
:100C60009F93AF93BF9380918B0190918C01A09142
:100C70008D01B0918E013091860123E0230F2D3735
:100C800020F40196A11DB11D05C026E8230F029690
:100C9000A11DB11D2093860180938B0190938C013F
:100CA000A0938D01B0938E0180918701909188016E
:100CB000A0918901B0918A010196A11DB11D809377
:100CC000870190938801A0938901B0938A01BF9115
:100CD000AF919F918F913F912F910F900FBE0F90E9
:100CE0001F9018951F920F920FB60F9211242F93F9
:100CF0003F934F935F936F937F938F939F93AF93A4
:100D0000BF93EF93FF938FE891E00E94ED02FF9174
:100D1000EF91BF91AF919F918F917F916F915F9173
:100D20004F913F912F910F900FBE0F901F901895EC
:100D30001F920F920FB60F9211242F938F939F93B0
:100D4000EF93FF93E0919F01F091A0018081E091EA
:100D5000A501F091A60182FD12C090818091A801A9
:100D60008F5F8F732091A901821751F0E091A80144
:100D7000F0E0E157FE4F958F8093A80101C080817C
:100D8000FF91EF919F918F912F910F900FBE0F9038
:100D90001F901895CF93EFE8F1E01382128288EE4E
:100DA00093E0A0E0B0E084839583A683B78384E0DA
:100DB00091E09183808385EC90E09587848784EC33
:100DC00090E09787868780EC90E0918B808B81EC18
:100DD00090E0938B828B82EC90E0958B848B86ECF9
:100DE00090E0978B868B118E128E138E148EEAE311
:100DF000F2E01382128286E191E09183808387E0A2
:100E000084838FEF8583C6E0C68385E0878384E093
:100E1000808783E0818782E0828713861486158627
:100E20001686178681E00E942404ECE2F2E088E056
:100E300086838BE08783C08781E08587CF91089583
:100E4000789484B5826084BD84B5816084BD85B5A5
:100E5000826085BD85B5816085BD80916E008160B1
:100E600080936E0010928100809181008260809357
:100E70008100809181008160809381008091800059
:100E80008160809380008091B10084608093B10084
:100E90008091B00081608093B00080917A0084607E
:100EA00080937A0080917A00826080937A008091AA
:100EB0007A00816080937A0080917A0080688093C4
:100EC0007A001092C100E0919F01F091A00182E0B0
:100ED0008083E0919B01F0919C011082E0919D0143
:100EE000F0919E018FEC80831092A701E091A30105
:100EF000F091A40186E08083E091A101F091A2012C
:100F0000808180618083E091A101F091A2018081C4
:100F100088608083E091A101F091A20180818068C6
:100F20008083E091A101F091A20180818F7D808377
:100F30008DE291E00E94EB0482E00E94240460E0D4
:100F4000809132020E940D0161E0809132020E9484
:100F5000DE00109235021092360210923702109283
:100F600038020E94A801882399F1809133028B30C6
:100F700029F170F18551823058F560912C0270E0B2
:100F800080E090E00E94CC0920E030E040E853E4AB
:100F90000E94830A6B017C0160912D0270E080E069
:100FA00090E00E94CE09A70196010E94BA0820E0B5
:100FB00030E040E251E40E942B0907C060912C020E
:100FC00070E080E090E00E94CC094B015C0106C01B
:100FD000812C912C90ECA92E9FE7B92E0E94A8019C
:100FE000882309F454C0809133028B3029F0C8F172
:100FF0008551823058F035C060912E0270E080E05B
:1010000090E00E94CC096B017C0131C0C0912E029E
:101010006C2F6F7770E080E090E00E94CE0920E0B6
:1010200030E040E853E40E94830A6B017C01609148
:101030002F0270E080E090E00E94CE09A7019601A7
:101040000E94BA0820E030E040E251E40E942B09FF
:101050006B017C01C7FF0BC0F7FAF094F7F8F0942E
:1010600006C0C12CD12C80ECE82E8FE7F82EA7010A
:101070009601C701B6010E94F00A811108C0A501BE
:101080009401C501B4010E94F00A882339F087E673
:1010900091E00E94EB040E947E0363CFE1E0809127
:1010A0004D028111E0E0E195F0E0E65CFD4F8489BE
:1010B00080680E941E046FE771E08AE392E00E945C
:1010C000D60422E0B701A6018AE392E00E94FE0462
:1010D00063E671E08AE392E00E94D604E0914D025B
:1010E000E23008F044C0E150F0E0E65CFD4F848956
:1010F00080680E941E0469E371E08AE392E00E9426
:10110000D60422E0B501A4018AE392E00E94FE0425
:1011100063E471E08AE392E00E94D60464EF71E038
:1011200080E090E00E946E0166E471E08FE891E05B
:101130000E94D60422E0B501A4018FE891E00E944C
:10114000FE0461E571E08FE891E00E94D60465E558
:1011500071E08FE891E00E94D60422E0B701A60179
:101160008FE891E00E94FE0483E691E092CFE1E0F7
:10117000BBCF5058BB27AA270E94D1080C94440A21
:101180000E94360A38F00E943D0A20F039F49F3F51
:1011900019F426F40C94330A0EF4E095E7FB0C9452
:1011A0002D0AE92F0E94550A58F3BA1762077307F0
:1011B0008407950720F079F4A6F50C94770A0EF4CD
:1011C000E0950B2EBA2FA02D0B01B90190010C0157
:1011D000CA01A0011124FF27591B99F0593F50F46F
:1011E000503E68F11A16F040A22F232F342F4427C7
:1011F000585FF3CF469537952795A795F0405395BF
:10120000C9F77EF41F16BA0B620B730B840BBAF08E
:101210009150A1F0FF0FBB1F661F771F881FC2F7F9
:101220000EC0BA0F621F731F841F48F4879577950D
:101230006795B795F7959E3F08F0B0CF9395880FC7
:1012400008F09927EE0F9795879508950E94090A4F
:1012500008F481E008950E943F090C94440A0E941A
:101260003D0A58F00E94360A40F029F45F3F29F009
:101270000C942D0A51110C94780A0C94330A0E9494
:10128000550A68F39923B1F3552391F3951B550B38
:10129000BB27AA2762177307840738F09F5F5F4F49
:1012A000220F331F441FAA1FA9F335D00E2E3AF088
:1012B000E0E832D091505040E695001CCAF72BD0A0
:1012C000FE2F29D0660F771F881FBB1F26173707F1
:1012D0004807AB07B0E809F0BB0B802DBF01FF2723
:1012E00093585F4F3AF09E3F510578F00C942D0AC9
:1012F0000C94780A5F3FE4F3983ED4F38695779593
:101300006795B795F7959F5FC9F7880F911D9695DB
:10131000879597F90895E1E0660F771F881FBB1F37
:10132000621773078407BA0720F0621B730B840BE4
:10133000BA0BEE1F88F7E09508950E945D0A88F0C9
:101340009F5798F0B92F9927B751B0F0E1F0660F89
:10135000771F881F991F1AF0BA95C9F714C0B130CA
:1013600091F00E94770AB1E008950C94770A672FF4
:10137000782F8827B85F39F0B93FCCF386957795F9
:101380006795B395D9F73EF49095809570956195E2
:101390007F4F8F4F9F4F0895E89409C097FB3EF40D
:1013A00090958095709561957F4F8F4F9F4F9923B2
:1013B000A9F0F92F96E9BB279395F6958795779530
:1013C0006795B795F111F8CFFAF4BB0F11F460FFF0
:1013D0001BC06F5F7F4F8F4F9F4F16C0882311F048
:1013E00096E911C0772321F09EE8872F762F05C05C
:1013F000662371F096E8862F70E060E02AF09A95F7
:10140000660F771F881FDAF7880F9695879597F9EB
:101410000895990F0008550FAA0BE0E8FEEF161685
:101420001706E807F907C0F012161306E407F507D8
:1014300098F0621B730B840B950B39F40A2661F04C
:10144000232B242B252B21F408950A2609F4A140EF
:10145000A6958FEF811D811D089597F99F6780E8FC
:1014600070E060E008959FEF80EC089500240A94F6
:101470001616170618060906089500240A9412166F
:101480001306140605060895092E0394000C11F4A2
:10149000882352F0BB0F40F4BF2B11F460FF04C04F
:1014A0006F5F7F4F8F4F9F4F089557FD9058440FA8
:1014B000551F59F05F3F71F04795880F97FB991FB3
:1014C00061F09F3F79F08795089512161306140670
:1014D000551FF2CF4695F1DF08C0161617061806FD
:1014E000991FF1CF86957105610508940895E894D8
:1014F000BB2766277727CB0197F908950E94090A31
:1015000008F48FEF08950E94960A0C94440A0E94F2
:10151000360A38F00E943D0A20F0952311F00C9411
:101520002D0A0C94330A11240C94780A0E94550A4F
:1015300070F3959FC1F3950F50E0551F629FF00126
:10154000729FBB27F00DB11D639FAA27F00DB11D3F
:10155000AA1F649F6627B00DA11D661F829F2227C8
:10156000B00DA11D621F739FB00DA11D621F839F4F
:10157000A00D611D221F749F3327A00D611D231F25
:10158000849F600D211D822F762F6A2F11249F5773
:1015900050409AF0F1F088234AF0EE0FFF1FBB1F76
:1015A000661F771F881F91505040A9F79E3F510535
:1015B00080F00C942D0A0C94780A5F3FE4F3983E77
:1015C000D4F3869577956795B795F795E7959F5FDF
:1015D000C1F7FE2B880F911D9695879597F9089571
:1015E0000E94090A880B990B0895A1E21A2EAA1BE2
:1015F000BB1BFD010DC0AA1FBB1FEE1FFF1FA217C3
:10160000B307E407F50720F0A21BB30BE40BF50BBF
:10161000661F771F881F991F1A9469F76095709548
:10162000809590959B01AC01BD01CF010895EE0F0F
:10163000FF1F0590F491E02D099481E090E0F8946B
:081640000C94220BF894FFCF7B
:10164800000000000F037C02A6025C03D702B5026B
:10165800C90200000000CA047C02D104D0040D0AAB
:10166800006E616E00696E66006F766600444854CD
:1016780078782074657374210048756D696469749D
:10168800793D0025200048756D69646974793A20B0
:10169800002025090054656D706572617475726566
:1016A8003A2000202A43004661696C656420746F03
:1016B80020726561642066726F6D2044485400543E
:0616C800656D703D00009D
:107E0000112484B714BE81FFF0D085E080938100F7
:107E100082E08093C00088E18093C10086E0809377
:107E2000C20080E18093C4008EE0C9D0259A86E02C
:107E300020E33CEF91E0309385002093840096BBD3
:107E4000B09BFECF1D9AA8958150A9F7CC24DD24C4
:107E500088248394B5E0AB2EA1E19A2EF3E0BF2EE7
:107E6000A2D0813461F49FD0082FAFD0023811F036
:107E7000013811F484E001C083E08DD089C08234E0
:107E800011F484E103C0853419F485E0A6D080C0E4
:107E9000853579F488D0E82EFF2485D0082F10E0AE
:107EA000102F00270E291F29000F111F8ED06801E7
:107EB0006FC0863521F484E090D080E0DECF843638
:107EC00009F040C070D06FD0082F6DD080E0C81688
:107ED00080E7D80618F4F601B7BEE895C0E0D1E017
:107EE00062D089930C17E1F7F0E0CF16F0E7DF06D8
:107EF00018F0F601B7BEE89568D007B600FCFDCFD4
:107F0000A601A0E0B1E02C9130E011968C91119780
:107F100090E0982F8827822B932B1296FA010C0160
:107F200087BEE89511244E5F5F4FF1E0A038BF0790
:107F300051F7F601A7BEE89507B600FCFDCF97BE46
:107F4000E89526C08437B1F42ED02DD0F82E2BD052
:107F50003CD0F601EF2C8F010F5F1F4F84911BD097
:107F6000EA94F801C1F70894C11CD11CFA94CF0C13
:107F7000D11C0EC0853739F428D08EE10CD085E9AC
:107F80000AD08FE07ACF813511F488E018D01DD067
:107F900080E101D065CF982F8091C00085FFFCCF94
:107FA0009093C60008958091C00087FFFCCF809118
:107FB000C00084FD01C0A8958091C6000895E0E648
:107FC000F0E098E1908380830895EDDF803219F02E
:107FD00088E0F5DFFFCF84E1DECF1F93182FE3DFCA
:107FE0001150E9F7F2DF1F91089580E0E8DFEE27F6
:047FF000FF270994CA
:027FFE00040479
:0400000300007E007B
:00000001FF
